{
  "contractName": "Storage",
  "abi": [
    {
      "anonymous": false,
      "inputs": [
        {
          "indexed": false,
          "internalType": "uint256",
          "name": "id",
          "type": "uint256"
        },
        {
          "indexed": false,
          "internalType": "string",
          "name": "hashStored",
          "type": "string"
        },
        {
          "indexed": false,
          "internalType": "uint256",
          "name": "size",
          "type": "uint256"
        },
        {
          "indexed": false,
          "internalType": "uint256",
          "name": "date",
          "type": "uint256"
        },
        {
          "indexed": false,
          "internalType": "string",
          "name": "fileType",
          "type": "string"
        },
        {
          "indexed": false,
          "internalType": "string",
          "name": "fileName",
          "type": "string"
        },
        {
          "indexed": false,
          "internalType": "string",
          "name": "intro",
          "type": "string"
        },
        {
          "indexed": false,
          "internalType": "address payable",
          "name": "sender",
          "type": "address"
        }
      ],
      "name": "UploadedFile",
      "type": "event"
    },
    {
      "inputs": [],
      "name": "count",
      "outputs": [
        {
          "internalType": "uint256",
          "name": "",
          "type": "uint256"
        }
      ],
      "stateMutability": "view",
      "type": "function",
      "constant": true
    },
    {
      "inputs": [
        {
          "internalType": "uint256",
          "name": "",
          "type": "uint256"
        }
      ],
      "name": "files",
      "outputs": [
        {
          "internalType": "uint256",
          "name": "id",
          "type": "uint256"
        },
        {
          "internalType": "string",
          "name": "hashStored",
          "type": "string"
        },
        {
          "internalType": "uint256",
          "name": "size",
          "type": "uint256"
        },
        {
          "internalType": "uint256",
          "name": "date",
          "type": "uint256"
        },
        {
          "internalType": "string",
          "name": "fileType",
          "type": "string"
        },
        {
          "internalType": "string",
          "name": "fileName",
          "type": "string"
        },
        {
          "internalType": "string",
          "name": "intro",
          "type": "string"
        },
        {
          "internalType": "address payable",
          "name": "sender",
          "type": "address"
        }
      ],
      "stateMutability": "view",
      "type": "function",
      "constant": true
    },
    {
      "inputs": [],
      "name": "name",
      "outputs": [
        {
          "internalType": "string",
          "name": "",
          "type": "string"
        }
      ],
      "stateMutability": "view",
      "type": "function",
      "constant": true
    },
    {
      "inputs": [
        {
          "internalType": "string",
          "name": "hashStored",
          "type": "string"
        },
        {
          "internalType": "uint256",
          "name": "size",
          "type": "uint256"
        },
        {
          "internalType": "string",
          "name": "fileType",
          "type": "string"
        },
        {
          "internalType": "string",
          "name": "fileName",
          "type": "string"
        },
        {
          "internalType": "string",
          "name": "intro",
          "type": "string"
        }
      ],
      "name": "uploadFile",
      "outputs": [],
      "stateMutability": "nonpayable",
      "type": "function"
    }
  ],
  "bytecode": "0x60806040526040518060400160405280600781526020017f53746f726167650000000000000000000000000000000000000000000000000081525060009080519060200190620000519291906200006b565b5060006001553480156200006457600080fd5b5062000180565b82805462000079906200014a565b90600052602060002090601f0160209004810192826200009d5760008555620000e9565b82601f10620000b857805160ff1916838001178555620000e9565b82800160010185558215620000e9579182015b82811115620000e8578251825591602001919060010190620000cb565b5b509050620000f89190620000fc565b5090565b5b8082111562000117576000816000905550600101620000fd565b5090565b7f4e487b7100000000000000000000000000000000000000000000000000000000600052602260045260246000fd5b600060028204905060018216806200016357607f821691505b602082108114156200017a57620001796200011b565b5b50919050565b610c2d80620001906000396000f3fe608060405234801561001057600080fd5b506004361061004c5760003560e01c806306661abd1461005157806306fdde031461006f578063e82d9d331461008d578063f4c714b4146100a9575b600080fd5b6100596100e0565b60405161006691906106d3565b60405180910390f35b6100776100e6565b6040516100849190610787565b60405180910390f35b6100a760048036038101906100a2919061091e565b610174565b005b6100c360048036038101906100be9190610a09565b61038f565b6040516100d7989796959493929190610a77565b60405180910390f35b60015481565b600080546100f390610b40565b80601f016020809104026020016040519081016040528092919081815260200182805461011f90610b40565b801561016c5780601f106101415761010080835404028352916020019161016c565b820191906000526020600020905b81548152906001019060200180831161014f57829003601f168201915b505050505081565b600085511161018257600080fd5b6000841161018f57600080fd5b600083511161019d57600080fd5b60008251116101ab57600080fd5b3373ffffffffffffffffffffffffffffffffffffffff16600073ffffffffffffffffffffffffffffffffffffffff1614156101e557600080fd5b60018060008282546101f79190610ba1565b9250508190555060405180610100016040528060015481526020018681526020018581526020014281526020018481526020018381526020018281526020013373ffffffffffffffffffffffffffffffffffffffff1681525060026000600154815260200190815260200160002060008201518160000155602082015181600101908051906020019061028b929190610617565b50604082015181600201556060820151816003015560808201518160040190805190602001906102bc929190610617565b5060a08201518160050190805190602001906102d9929190610617565b5060c08201518160060190805190602001906102f6929190610617565b5060e08201518160070160006101000a81548173ffffffffffffffffffffffffffffffffffffffff021916908373ffffffffffffffffffffffffffffffffffffffff1602179055509050507fcabe61e16b2077ece1d70a46e50355b4870b41095042ce4a9576699d182084e460015486864287878733604051610380989796959493929190610a77565b60405180910390a15050505050565b60026020528060005260406000206000915090508060000154908060010180546103b890610b40565b80601f01602080910402602001604051908101604052809291908181526020018280546103e490610b40565b80156104315780601f1061040657610100808354040283529160200191610431565b820191906000526020600020905b81548152906001019060200180831161041457829003601f168201915b50505050509080600201549080600301549080600401805461045290610b40565b80601f016020809104026020016040519081016040528092919081815260200182805461047e90610b40565b80156104cb5780601f106104a0576101008083540402835291602001916104cb565b820191906000526020600020905b8154815290600101906020018083116104ae57829003601f168201915b5050505050908060050180546104e090610b40565b80601f016020809104026020016040519081016040528092919081815260200182805461050c90610b40565b80156105595780601f1061052e57610100808354040283529160200191610559565b820191906000526020600020905b81548152906001019060200180831161053c57829003601f168201915b50505050509080600601805461056e90610b40565b80601f016020809104026020016040519081016040528092919081815260200182805461059a90610b40565b80156105e75780601f106105bc576101008083540402835291602001916105e7565b820191906000526020600020905b8154815290600101906020018083116105ca57829003601f168201915b5050505050908060070160009054906101000a900473ffffffffffffffffffffffffffffffffffffffff16905088565b82805461062390610b40565b90600052602060002090601f016020900481019282610645576000855561068c565b82601f1061065e57805160ff191683800117855561068c565b8280016001018555821561068c579182015b8281111561068b578251825591602001919060010190610670565b5b509050610699919061069d565b5090565b5b808211156106b657600081600090555060010161069e565b5090565b6000819050919050565b6106cd816106ba565b82525050565b60006020820190506106e860008301846106c4565b92915050565b600081519050919050565b600082825260208201905092915050565b60005b8381101561072857808201518184015260208101905061070d565b83811115610737576000848401525b50505050565b6000601f19601f8301169050919050565b6000610759826106ee565b61076381856106f9565b935061077381856020860161070a565b61077c8161073d565b840191505092915050565b600060208201905081810360008301526107a1818461074e565b905092915050565b6000604051905090565b600080fd5b600080fd5b600080fd5b600080fd5b7f4e487b7100000000000000000000000000000000000000000000000000000000600052604160045260246000fd5b6107ff8261073d565b810181811067ffffffffffffffff8211171561081e5761081d6107c7565b5b80604052505050565b60006108316107a9565b905061083d82826107f6565b919050565b600067ffffffffffffffff82111561085d5761085c6107c7565b5b6108668261073d565b9050602081019050919050565b82818337600083830152505050565b600061089561089084610842565b610827565b9050828152602081018484840111156108b1576108b06107c2565b5b6108bc848285610873565b509392505050565b600082601f8301126108d9576108d86107bd565b5b81356108e9848260208601610882565b91505092915050565b6108fb816106ba565b811461090657600080fd5b50565b600081359050610918816108f2565b92915050565b600080600080600060a0868803121561093a576109396107b3565b5b600086013567ffffffffffffffff811115610958576109576107b8565b5b610964888289016108c4565b955050602061097588828901610909565b945050604086013567ffffffffffffffff811115610996576109956107b8565b5b6109a2888289016108c4565b935050606086013567ffffffffffffffff8111156109c3576109c26107b8565b5b6109cf888289016108c4565b925050608086013567ffffffffffffffff8111156109f0576109ef6107b8565b5b6109fc888289016108c4565b9150509295509295909350565b600060208284031215610a1f57610a1e6107b3565b5b6000610a2d84828501610909565b91505092915050565b600073ffffffffffffffffffffffffffffffffffffffff82169050919050565b6000610a6182610a36565b9050919050565b610a7181610a56565b82525050565b600061010082019050610a8d600083018b6106c4565b8181036020830152610a9f818a61074e565b9050610aae60408301896106c4565b610abb60608301886106c4565b8181036080830152610acd818761074e565b905081810360a0830152610ae1818661074e565b905081810360c0830152610af5818561074e565b9050610b0460e0830184610a68565b9998505050505050505050565b7f4e487b7100000000000000000000000000000000000000000000000000000000600052602260045260246000fd5b60006002820490506001821680610b5857607f821691505b60208210811415610b6c57610b6b610b11565b5b50919050565b7f4e487b7100000000000000000000000000000000000000000000000000000000600052601160045260246000fd5b6000610bac826106ba565b9150610bb7836106ba565b9250827fffffffffffffffffffffffffffffffffffffffffffffffffffffffffffffffff03821115610bec57610beb610b72565b5b82820190509291505056fea26469706673582212203e4994d13d36357c20111de5e4d268803a519ecf842ef3cc49442a83025b321c64736f6c634300080b0033",
  "immutableReferences": {},
  "source": "// SPDX-License-Identifier: MIT\npragma solidity ^0.8.0;\n\ncontract Storage {\n    string public name = 'Storage';\n    uint public count = 0;\n\n    struct File {\n        uint id;\n        string hashStored;\n        uint size;\n        uint date;\n        string fileType;\n        string fileName;\n        string intro;\n        address payable sender;\n    }\n    mapping(uint => File) public files;\n\n    event UploadedFile (\n        uint id,\n        string hashStored,\n        uint size,\n        uint date,\n        string fileType,\n        string fileName,\n        string intro,\n        address payable sender\n    );\n\n    function uploadFile(string memory hashStored, uint size, string memory fileType, string memory fileName, string memory intro) public {\n        require(bytes(hashStored).length > 0);\n        require(size > 0);\n        require(bytes(fileType).length > 0);\n        require(bytes(fileName).length > 0);\n        require(address(0) != msg.sender);\n\n        count += 1;\n        files[count] = File(count, hashStored, size, block.timestamp, fileType, fileName, intro, payable(msg.sender));\n\n        emit UploadedFile(count, hashStored, size, block.timestamp, fileType, fileName, intro, payable(msg.sender));\n    }\n}",
  "sourcePath": "/Users/brucezhu/Desktop/box/truffle/contracts/uploadStore.sol",
  "compiler": {
    "name": "solc",
    "version": "0.8.11+commit.d7f03943.Emscripten.clang"
  },
  "schemaVersion": "3.4.10",
  "updatedAt": "2022-12-26T19:56:58.467Z",
  "networkType": "ethereum",
  "devdoc": {
    "kind": "dev",
    "methods": {},
    "version": 1
  },
  "userdoc": {
    "kind": "user",
    "methods": {},
    "version": 1
  }
}